:020000040800F2
:100000009808002089010008D1280008412700082D
:100010008528000891020008992E000800000000C1
:10002000000000000000000000000000812900081E
:10003000510400080000000041290008D9290008E7
:10004000A3010008A3010008A3010008A301000800
:10005000A3010008A3010008A3010008A3010008F0
:10006000A3010008A3010008A3010008A3010008E0
:10007000E1030008F1030008A3010008A301000840
:10008000A3010008A3010008A3010008A3010008C0
:10009000892E000895020008A3010008A3010008AA
:1000A000A3010008A3010008A3010008A3010008A0
:1000B000A3010008A3010008A3010008A301000890
:1000C000A3010008A3010008A3010008A301000880
:1000D000A3010008A3010008A3010008A301000870
:1000E000A3010008A3010008A301000800F002F822
:1000F00000F03AF80AA090E8000C82448344AAF188
:100100000107DA4501D100F02FF8AFF2090EBAE885
:100110000F0013F0010F18BFFB1A43F0010318473B
:100120007833000098330000103A24BF78C878C1B3
:10013000FAD8520724BF30C830C144BF04680C60ED
:10014000704700000023002400250026103A28BF35
:1001500078C1FBD8520728BF30C148BF0B60704739
:100160001FB51FBD10B510BD00F058F81146FFF7C0
:10017000F7FF02F01BFF00F076F803B4FFF7F2FF81
:1001800003BC00F07DF8000009488047094800479B
:10019000FEE7FEE7FEE7FEE7FEE7FEE7FEE7FEE737
:1001A000FEE7FEE704480549054A064B7047000094
:1001B0004D2A0008ED000008980200209808002051
:1001C00098040020980400204FF0000200B5134668
:1001D00094469646203922BFA0E80C50A0E80C5067
:1001E000B1F12001BFF4F7AF090728BFA0E80C5018
:1001F00048BF0CC05DF804EB890028BF40F8042B11
:1002000008BF704748BF20F8022B11F0804F18BF7D
:1002100000F8012B7047704770477047754600F033
:100220002BF8AE4605006946534620F00700854688
:1002300018B020B5FFF7B6FFBDE820404FF000062C
:100240004FF000074FF000084FF0000BAC46ACE851
:10025000C009ACE8C009ACE8C009ACE8C00921F0AD
:1002600007018D46704710B50446AFF30080204665
:10027000BDE81040FFF781BF004870471000002024
:1002800001491820ABBEFEE72600020070470000BF
:10029000FFE7FEE780B540F27C10C2F2000000F0FC
:1002A00083FB80BD80B582B0019000910198006809
:1002B00046F20041C4F20001884211D1FFE70098E4
:1002C000B0F5027F0BD1FFE740F27800C2F20000E8
:1002D00040F27001C2F2000102F0D6FAFFE7FFE738
:1002E00002B080BD80B58CB00B90002106910791C3
:1002F00001200890019102910391049105910990C8
:100300000E200A900B9801A900F082F918B1FFE7BE
:1003100000F0A0F8FFE70B9800F0EAFE18B1FFE745
:1003200000F098F8FFE70B98022100F09BF818B155
:10033000FFE700F08FF8FFE70B98012100F092F83B
:1003400018B1FFE700F086F8FFE70CB080BD0000B1
:1003500010B58EB08C46864611981099CDF834E0D1
:10036000ADF832C0ADF83020ADF82E30ADF82C101D
:10037000ADF82A000020019008210891069007900E
:10038000BDF93210049105909DF831008DF80800F8
:100390009DF830008DF809009DF82F008DF80A00B7
:1003A0009DF82E008DF80B009DF82D008DF80C00A7
:1003B0009DF82C008DF80D009DF82B008DF80E0097
:1003C0009DF82A008DF80F0040F27C10C2F2000068
:1003D00004A902AA01AB00F06FF80EB010BD000036
:1003E00080B540F2E810C2F2000000F0E3FE80BDEC
:1003F00080B540F2A410C2F2000000F0DBFE80BD28
:1004000084B003900291019200930398C16B026C37
:10041000012090404860009803990968486003985B
:100420004068102809D1FFE701980399096888609E
:10043000029803990968C86008E00298039909685E
:100440008860019803990968C860FFE704B07047A5
:100450007047000081B0EFF3108072B60090FFE7A4
:10046000FEE7000084B002900191029890F820000D
:100470008DF803009DF80300012805D0FFE79DF8E3
:10048000030002280AD1FFE7019A0298016848692F
:100490001043486100208DF80F0008E00299486A77
:1004A00040F48020486201208DF80F00FFE79DF89E
:1004B0000F0004B07047000088B0069005910492C8
:1004C0000393069890F820008DF8070006980068BE
:1004D000806800900598806808B9FFE700E0FFE7B2
:1004E0009DF80700012806D0FFE79DF807000228C5
:1004F00040F08080FFE79DF80300400700280CD4FF
:10050000FFE79DF803000007002806D4FFE79DF8E9
:100510000300C006002864D5FFE70098C0F301601F
:10052000029002990120884003990860059880682C
:1005300068B9FFE705980168C06840EA415006992C
:100540000968029A01EB0211C1F880010EE00599D9
:100550004A688868C96840EAC20008430699096881
:10056000029A01EB0211C1F88001FFE705980069CA
:1005700006990968029A01EB0211C1F884010598F5
:10058000007D01280CD1FFE706980068029900EB76
:100590000111D1F8840140F48070C1F88401FFE7B3
:1005A0000498406806990968029A01EB0211C1F8A3
:1005B0008C010498006806990968029A01EB0211FF
:1005C000C1F8880106980068029900EB0111D1F882
:1005D000800140F00100C1F8800100208DF81F006B
:1005E00011E00699486A40F40010486201208DF835
:1005F0001F0008E00699486A40F480204862012004
:100600008DF81F00FFE79DF81F0008B0704700003D
:1006100086B004900391049800680190049890F8C3
:1006200020008DF803009DF80300012806D0FFE7A5
:100630009DF80300022840F09B80FFE70199D1F864
:10064000000240F00100C1F800020398406900F088
:100650001F01012088400290029A0199D1F81C02E2
:100660009043C1F81C020398C069F0B9FFE7029AF1
:100670000199D1F80C029043C1F80C02039A9088BA
:10068000D168526940EA0140019901EBC201C1F809
:100690004002039A10889168526940EA014001992A
:1006A00001EBC201C1F84402FFE70398C0690128C9
:1006B0001ED1FFE7029A0199D1F80C021043C1F84C
:1006C0000C02039A90881168526940EA014001992E
:1006D00001EBC201C1F84002039A90899168526906
:1006E00040EA0140019901EBC201C1F84402FFE771
:1006F0000398806940B9FFE7029A0199D1F8040292
:100700009043C1F8040207E0029A0199D1F804026B
:100710001043C1F80402FFE70398006940B9FFE7FE
:10072000029A0199D1F814029043C1F8140207E02B
:10073000029A0199D1F814021043C1F81402FFE79C
:100740000398006A012808D1FFE7029A0199D1F8BD
:100750001C021043C1F81C02FFE70199D1F8000206
:1007600020F00100C1F8000200208DF8170008E019
:100770000499486A40F48020486201208DF81700EF
:10078000FFE79DF8170006B07047000081B00090A9
:1007900001B0704786B004900391029201930498CF
:1007A00090F820008DF803009DF80300012806D082
:1007B000FFE79DF80300022840F0E880FFE7039878
:1007C00080B9FFE704980068C068800748B9FFE770
:1007D0000499486A40F40010486201208DF817001F
:1007E000DDE00FE0049800680069800748B9FFE782
:1007F0000499486A40F40010486201208DF81700FF
:10080000CDE0FFE704980068039900EB0110D0F8F1
:10081000B00100F00400029988600298806858B91D
:10082000FFE704980068039900EB0110D0F8B001CD
:10083000400D029908600AE004980068039900EBF3
:100840000110D0F8B001C00802994860FFE7049891
:100850000068039900EB0110D0F8B00100F002002D
:100860000299C86004980068039900EB0110D0F861
:10087000B40100F00F00082804D3FFE70299082014
:1008800008610BE004980068039900EB0110D0F8B0
:10089000B40100F00F0002990861FFE704980068B6
:1008A000039900EB0110D0F8B40180B2000A02995C
:1008B000886104980068039900EB0110D0F8B40136
:1008C000000C0299486104980068039900EB01103C
:1008D000D0F8B8010199087004980068039900EBFA
:1008E0000110D0F8B801000A019948700498006816
:1008F000039900EB0110D0F8B801000C0199887041
:1009000004980068039900EB0110D0F8B801000EBC
:100910000199C87004980068039900EB0110D0F8A1
:10092000BC010199087104980068039900EB01105B
:10093000D0F8BC01000A0199487104980068039935
:1009400000EB0110D0F8BC01000C019988710498EB
:100950000068039900EB0110D0F8BC01000E01996A
:10096000C871039838B9FFE704980168C86840F077
:100970002000C86006E004980168086940F0200083
:100980000861FFE700208DF8170008E00499486A25
:1009900040F48020486201208DF81700FFE79DF8A1
:1009A000170006B07047000080B58AB0099000209B
:1009B00008900998006840690790099800684068A5
:1009C0000690099800688068059009980068C068DA
:1009D000049009980068006903900998006880698C
:1009E00002909DF81C00C007002800F09480FFE7EB
:1009F0009DF81400C00758B3FFE70998016801206B
:100A000088609DF814008007002804D5FFE7099846
:100A100000F0B8FB1BE09DF814004007002805D546
:100A2000FFE7089840F4006008900FE09DF814007C
:100A30000007002805D5FFE7089840F4805008908B
:100A400003E0099800F09AFBFFE7FFE7FFE7FFE705
:100A50009DF81500C00760B3FFE7099801684FF4DF
:100A6000807088609DF815008007002804D5FFE796
:100A7000099800F08FFB1BE09DF815004007002847
:100A800005D5FFE7089840F4005008900FE09DF866
:100A900015000007002805D5FFE7089840F48040BE
:100AA000089003E0099800F071FBFFE7FFE7FFE71C
:100AB000FFE79DF81600C00760B3FFE709980168DB
:100AC0004FF4803088609DF816008007002804D518
:100AD000FFE7099800F066FB1BE09DF81600400751
:100AE000002805D5FFE7089840F4004008900FE083
:100AF0009DF816000007002805D5FFE7089840F488
:100B00008030089003E0099800F048FBFFE7FFE71A
:100B1000FFE7FFE7FFE79DF81C000007002810D55E
:100B2000FFE79DF81000C006002809D5FFE70898E8
:100B300040F400700890099801681020C860FFE731
:100B4000FFE79DF81C00400700280FD5FFE79DF840
:100B500010000007002808D5FFE709980168082061
:100B6000C860099800F06AFAFFE7FFE79DF81C00EB
:100B7000800700280BD5FFE709980068C068800748
:100B800020B1FFE7099800F05DFAFFE7FFE79DF865
:100B90001C004006002810D5FFE79DF80C00C00699
:100BA000002809D5FFE7089840F48060089009986C
:100BB000016810200861FFE7FFE79DF81C00800630
:100BC00000280FD5FFE79DF80C000007002808D586
:100BD000FFE70998016808200861099800F07CFA8D
:100BE000FFE7FFE79DF81C00C00600280BD5FFE7D4
:100BF000099800680069800720B1FFE7099800F0B4
:100C00006FFAFFE7FFE79DF81E00800700280FD569
:100C1000FFE79DF81800C006002808D5FFE70998EF
:100C2000016810204860099800F05EFAFFE7FFE7CE
:100C30009DF81E00C00778B1FFE79DF81800000777
:100C4000002808D5FFE7099801680820486009983E
:100C500000F0ACFAFFE7FFE79DF81D000006002852
:100C600040F18D80FFE79DF818004007002840F113
:100C70008180FFE79DF81D00C00750B1FFE79DF898
:100C80000800C00728B1FFE7089840F0010008906D
:100C9000FFE79DF81D00800700280BD5FFE79DF8B2
:100CA00008008007002805D5FFE7089840F00200FB
:100CB0000890FFE79DF81D00400700280BD5FFE7CF
:100CC0009DF808004007002805D5FFE7089840F088
:100CD00004000890FFE79DF81D000007002848D594
:100CE000FFE79DF8080010F0700F42D0FFE7029870
:100CF00000F0700001460191102814D0FFE7019820
:100D0000202815D0FFE70198302816D0FFE701987A
:100D1000402817D0FFE70198502818D0FFE7019826
:100D2000602819D01DE0089840F00800089019E0EC
:100D3000089840F01000089014E0089840F0200057
:100D400008900FE0089840F0400008900AE00898EA
:100D500040F08000089005E0089840F4807008900A
:100D600000E0FFE709980168886920F07000886159
:100D7000FFE7FFE70998016804204860FFE708984B
:100D800048B1FFE7089A0999486A104348620998F0
:100D9000FFF7FCFCFFE70AB080BD000080B584B01F
:100DA0000290029820B9FFE701208DF80F00E0E0E3
:100DB000029890F8200020B9FFE7029800F0DEF8D2
:100DC000FFE702980168086840F00100086000F041
:100DD00083FD0190FFE7029800684068C007A8B94A
:100DE000FFE700F079FD0199401A0B280DD3FFE7CA
:100DF0000299486A40F4003048620299052081F85F
:100E0000200001208DF80F00B3E0E4E702980168AC
:100E1000086820F00200086000F05EFD0190FFE726
:100E20000298006840688007002815D5FFE700F0A9
:100E300053FD0199401A0B280DD3FFE70299486A28
:100E400040F4003048620299052081F8200001201A
:100E50008DF80F008DE0E3E70298007E012807D1AE
:100E6000FFE702980168086840F08000086006E02B
:100E700002980168086820F080000860FFE7029887
:100E8000407E012807D1FFE702980168086840F01A
:100E90004000086006E002980168086820F0400001
:100EA0000860FFE70298807E012807D1FFE70298DB
:100EB0000168086840F02000086006E002980168B8
:100EC000086820F020000860FFE70298C07E012833
:100ED00007D1FFE702980168086820F01000086059
:100EE00006E002980168086840F010000860FFE71B
:100EF0000298007F012807D1FFE70298016808687F
:100F000040F00800086006E002980168086820F0D8
:100F100008000860FFE70298407F012807D1FFE73B
:100F200002980168086840F00400086006E0029832
:100F30000168086820F004000860FFE7029B196858
:100F40005A689868D3F80CC040EA0C00D3F810C077
:100F500040EA0C005B691843013A1043C8610299EA
:100F600000204862029A012182F820108DF80F00BB
:100F7000FFE79DF80F0004B080BD000080B58CB085
:100F80000B9000200A900990089007900B98006839
:100F900046F20041C4F2000188424CD1FFE7FFE76E
:100FA00041F21C00C4F20200016841F000710160CE
:100FB000006800F0007006900698FFE7FFE741F236
:100FC0001800C4F20200016841F0040101600068E9
:100FD00000F0040005900598FFE74FF400600790CB
:100FE000002003900890099040F60000C4F2010030
:100FF000009007A9019100F0DFFA009801994FF4E1
:10100000805207920222089203220A9200F0D4FA38
:10101000039A14200290114600F0FAFC029800F0A6
:10102000EDFC039A15200490114600F0F1FC0498A1
:1010300000F0E4FCFFE70CB080BD000081B0009040
:1010400001B0704780B588B00790079840F27422CD
:10105000C2F20002029240F27003C2F200030021C9
:101060000591FFF797FB029907980968FFF71AF9AE
:101070000798069040F27800C2F200000390B0F9A1
:10108000000002F09BF8024640F21410C2F2000089
:1010900048F20001C4F23B5101F0AEFF0146039853
:1010A0000491B0F9100002F089F80499024640F268
:1010B0004810C2F2000001F09FFF02F063F8059BA8
:1010C0000246069869464A600B6040F2FF111A46D4
:1010D000FFF73EF908B080BD81B0009001B07047C5
:1010E00081B0009001B0704781B0009001B07047AE
:1010F00080B584B00290029890F8200001282FD18A
:10110000FFE70299022081F8200002980168086830
:1011100020F00100086000F0DFFB0190FFE702987B
:1011200000684068C007A8B1FFE700F0D5FB01994F
:10113000401A0B280DD3FFE70299486A40F40030AB
:1011400048620299052081F8200001208DF80F00E7
:101150000FE0E4E70299002048628DF80F0008E0F4
:101160000299486A40F40020486201208DF80F007F
:10117000FFE79DF80F0004B080BD000081B0009033
:1011800001B0704781B0009001B0704781B000900D
:1011900001B0704781B0009001B0704781B00090FD
:1011A00001B0704781B0009001B0704781B00090ED
:1011B00001B0704780B58EB00D900D98C06B00687F
:1011C0000C900D98006800680B900C980D99096CB4
:1011D000C8404007002875D5FFE79DF82C00400760
:1011E00000286FD5FFE70D9800680068800600288A
:1011F00007D4FFE70D980168086820F00400086034
:10120000FFE70D9800680821C4F20201884203D16B
:10121000FFE704200A9047E00D9800681C21C4F203
:101220000201884203D1FFE74020099039E00D9880
:1012300000683021C4F20201884204D1FFE74FF474
:10124000806008902AE00D9800684421C4F20201F1
:10125000884204D1FFE74FF4804007901BE00D98CF
:1012600000685821C4F20201884204D1FFE74FF41C
:10127000802006900CE00D9801686C22C4F20202F6
:101280004FF08060914208BF4FF480000690FFE766
:1012900006980790FFE707980890FFE708980990DD
:1012A000FFE709980A90FFE70A980421C4F20201B7
:1012B00008600D98C06A20B1FFE70D98C16A8847A1
:1012C000FFE7B8E00C980D99096CC840800700282A
:1012D00040F18080FFE79DF82C008007002879D539
:1012E000FFE70D9800680068800600280BD4FFE730
:1012F0000D980168086820F00A0008600D99012027
:1013000081F82100FFE70D9800680821C4F202016E
:10131000884203D1FFE70220059047E00D9800685E
:101320001C21C4F20201884203D1FFE7202004906F
:1013300039E00D9800683021C4F20201884204D1DE
:10134000FFE74FF4007003902AE00D9800684421F5
:10135000C4F20201884204D1FFE74FF4005002902A
:101360001BE00D9800685821C4F20201884204D1A4
:10137000FFE74FF4003001900CE00D9801686C22FB
:10138000C4F202024FF00070914208BF4FF4001007
:101390000190FFE701980290FFE702980390FFE7B2
:1013A00003980490FFE704980590FFE7059804214F
:1013B000C4F202010860FFE70D99002081F82000C7
:1013C000FFE70D98806A20B1FFE70D98816A884792
:1013D000FFE72FE00C980D99096CC8400007002822
:1013E00027D5FFE79DF82C000007002821D5FFE74F
:1013F0000D980168086820F00E0008600D98C26B17
:10140000016C012000FA01F151600D9988630D997A
:1014100081F82100FFE70D99002081F82000FFE707
:101420000D98006B20B1FFE70D98016B8847FFE72F
:10143000FFE7FFE7FFE70EB080BD000083B001903B
:1014400000200090019820B9FFE701208DF80B00E3
:1014500047E0019908684FF6F872CBF6FD72104428
:101460004CF6CD42CCF6CC42A0FB02026FF003005A
:1014700000EA9200086401990020C4F20200C863E7
:101480000199022081F8210001980068006800900D
:10149000009843F6F0718843009001994868D1F8AC
:1014A00008C0CB680A6940EA0C00184310434A6937
:1014B00010438A691043C9690143009808430090AA
:1014C0000098019909680860019900208863019AD1
:1014D000012182F82110019981F820008DF80B007C
:1014E000FFE79DF80B0003B07047000080B586B0A1
:1014F000049003910292019300208DF80300FFE70E
:10150000049890F82000012804D1FFE702208DF80C
:1015100017004CE00499012081F82000FFE7FFE765
:10152000049890F82100012832D1FFE704990220A5
:1015300081F82100049900208863049801680868F4
:1015400020F00100086004980399029A019BFEF7BD
:1015500057FF0498C06A38B1FFE70498016808682B
:1015600040F00E0008600CE004980168086820F064
:101570000400086004980168086840F00A000860E8
:10158000FFE704980168086840F00100086009E07E
:10159000FFE70499002081F82000FFE702208DF882
:1015A0000300FFE79DF803008DF81700FFE79DF8A3
:1015B000170006B080BD000090B00F900E91002083
:1015C0000D900990FFE70E9800680D99C84000281B
:1015D00000F07F81FFE70D99012088400C900E9864
:1015E00000680C9908400B900B980C99884240F0C9
:1015F0006C81FFE70E9840680590002851D0FFE706
:10160000059801283AD0FFE7059802283FD0FFE768
:10161000059803285FD0FFE70598112832D0FFE72F
:101620000598122838D0FFE705980021C1F2110172
:10163000884236D0FFE705980021C1F212018842A6
:101640002FD0FFE705980021C1F22101884228D060
:10165000FFE705980021C1F22201884221D0FFE76F
:1016600005980021C1F2310188421AD0FFE70598A0
:101670000021C1F23201884213D02FE00E98C068D9
:1016800009902CE00E98C0680430099027E00E986D
:10169000C0680830099022E00E98C0680C300990AC
:1016A0001DE00E98806818B9FFE70420099011E04A
:1016B0000E988068012806D1FFE7082009900C9851
:1016C0000F99086105E0082009900C980F9948616E
:1016D000FFE7FFE703E00020099000E0FFE70B9839
:1016E000FF2803D8FFE70F98049003E00F98043019
:1016F0000490FFE7049808900B98FF2804D8FFE7B0
:101700000D988000039006E00D996FF01F0000EB2C
:1017100081000390FFE70398079008980068079AF4
:101720000F21914088430999914008430899086026
:101730000E98C079C006002840F1C680FFE7FFE799
:1017400041F21800C4F20200016841F00101016099
:10175000006800F0010006900698FFE70D9820F061
:1017600003000821C4F2010140580A900D9800F0CE
:10177000030081000F2000FA01F10A9888430A90C3
:101780000F9840F60001C4F20101884203D1FFE73F
:101790000020029026E00F9840F60041C4F20101BB
:1017A000884203D1FFE70120019018E00F9841F231
:1017B0000001C4F20101884203D1FFE7022000903A
:1017C0000AE00F9941F20042C4F201020420914262
:1017D00008BF03200090FFE700980190FFE7019801
:1017E0000290FFE702980D9901F00301890000FAC9
:1017F00001F10A9808430A900A980D9921F0030113
:101800000822C4F2010288500E988079C006002890
:1018100009D5FFE70B9A40F20841C4F201010868BC
:101820001043086008E00B9A40F20841C4F201013D
:10183000086890430860FFE70E98807980060028CA
:1018400009D5FFE70B9A40F20C41C4F20101086888
:101850001043086008E00B9A40F20C41C4F2010109
:10186000086890430860FFE70E9880798007002899
:1018700009D5FFE70B9A40F20441C4F20101086860
:101880001043086008E00B9A40F20441C4F20101E1
:10189000086890430860FFE70E988079C00748B158
:1018A000FFE70B9A40F20041C4F2010108681043BF
:1018B000086008E00B9A40F20041C4F20101086898
:1018C00090430860FFE7FFE7FFE70D9801300D90B8
:1018D00079E610B07047000040F29020C2F200009C
:1018E0000068704740F20400C2F20000027840F243
:1018F0009021C2F20001086810440860704700009F
:1019000080B542F20001C4F20201086840F0100004
:101910000860032000F096F80F2000F005F800F0B2
:101920003BF8002080BD000080B582B0009040F2FE
:101930000000C2F20000006840F20401C2F200019F
:101940000A784FF47A71B1FBF2F1B0FBF1F000F0DC
:1019500073FD20B1FFE701208DF8070018E0009823
:101960000F280DD8FFE700994FF0FF30002200F05C
:101970004FF8009840F20801C2F20001086003E04D
:1019800001208DF8070003E000208DF80700FFE735
:101990009DF8070002B080BD83B0FFE741F2180058
:1019A000C4F20200016841F001010160006800F02A
:1019B000010002900298FFE7FFE741F21C00C4F229
:1019C0000200016841F080510160006800F0805021
:1019D00001900198FFE7FFE70421C4F201010868C4
:1019E0000090009820F0E0600090009840F00070B7
:1019F000009000980860FFE703B0704780B582B0A0
:101A00008DF807009DF9070001F048FA02B080BD8B
:101A100080B586B08DF817000491039200200290E3
:101A200001F054FA02909DF9170001900298049970
:101A3000039A00F04FFF0146019801F04FFA06B0FB
:101A400080BD000080B582B00190019801F068FA75
:101A500002B080BD80B584B002900191029820B997
:101A6000FFE701208DF80F001BE1019842F2000111
:101A7000C4F20201096801F00701884216D9FFE7A4
:101A800042F20000C4F20200016821F00701019A4D
:101A900011430160006800F007000199884204D0FA
:101AA000FFE701208DF80F00FBE0FFE702980078C8
:101AB000800700282AD5FFE7029800784007002811
:101AC00009D5FFE741F20401C4F20201086840F4BD
:101AD000E0600860FFE7029800780007002809D559
:101AE000FFE741F20401C4F20201086840F46050CB
:101AF0000860FFE741F20401C4F20201086820F027
:101B0000F000029A926810430860FFE7029800789C
:101B1000C007002860D0FFE70298406801280ED176
:101B2000FFE741F20000C4F20200006880030028D1
:101B300004D4FFE701208DF80F00B2E021E0029805
:101B4000406802280ED1FFE741F20000C4F2020013
:101B500000688001002804D4FFE701208DF80F0001
:101B60009FE00DE041F20000C4F20200006880072F
:101B7000002804D4FFE701208DF80F0091E0FFE773
:101B8000FFE741F20401C4F20201086820F00300FB
:101B9000029A526810430860FFF79EFE0090FFE72C
:101BA00041F20400C4F20200006800F00C00029947
:101BB0004968B0EB810F0ED0FFE7FFF78DFE00996B
:101BC000401A41F28931884204D3FFE703208DF89F
:101BD0000F0066E0E4E7FFE7019842F20001C4F27B
:101BE0000201096801F00701884216D2FFE742F2BC
:101BF0000000C4F20200016821F00701019A1143BC
:101C00000160006800F007000199884204D0FFE7F6
:101C100001208DF80F0044E0FFE7029800784007AC
:101C200000280CD5FFE741F20401C4F20201086864
:101C300020F4E060029AD26810430860FFE702983F
:101C40000078000700280DD5FFE741F20401C4F237
:101C50000201086820F46050029A126940EAC2004A
:101C60000860FFE700F04CF841F20401C4F2020101
:101C70000968C9B20A0943F26E41C0F60001895CE5
:101C8000C84040F20001C2F20001086040F20800C2
:101C9000C2F200000068FFF747FE00208DF80F0039
:101CA000FFE79DF80F0004B080BD000040F2000087
:101CB000C2F200000068704780B5FFF7F7FF41F2FD
:101CC0000401C4F202010968C1F3022243F27E4119
:101CD000C0F60001895CC84080BD000080B5FFF7F8
:101CE000E5FF41F20401C4F202010968C1F3C22216
:101CF00043F27E41C0F60001895CC84080BD00000F
:101D000086B000200590049003900290019041F26B
:101D10000400C4F2020000680590059800F00C0071
:101D20000146009100283FD0FFE70098042804D026
:101D3000FFE70098082806D037E041F20020C0F203
:101D40007A00019037E00598C0F3834143F2864062
:101D5000C0F60000405C02909DF81600C007C0B1BC
:101D6000FFE741F20400C4F202000068C0F3404102
:101D700043F29640C0F60000405C0490029841F2A5
:101D80000021C0F27A0148430499B0FBF1F00390BE
:101D900007E0029840F60011C0F23D01484303906D
:101DA000FFE70398019006E0FFE741F20020C0F250
:101DB0007A000190FFE7019806B0704780B586B0C1
:101DC0000490049820B9FFE701208DF817002EE356
:101DD00004980078C007002800F0AE80FFE741F2C9
:101DE0000400C4F20200006800F00C00042813D0C4
:101DF000FFE741F20400C4F20200006800F00C00AA
:101E000008281BD1FFE741F20400C4F20200006879
:101E1000C003002812D5FFE741F20000C4F202001F
:101E200000688003002808D5FFE70498406820B9BF
:101E3000FFE701208DF81700F9E27CE0FFE7049846
:101E40004068B0F5803F09D1FFE741F20001C4F2DC
:101E50000201086840F48030086032E0049840686D
:101E600068B9FFE741F20001C4F20201086820F4FA
:101E700080300860086820F48020086020E0049822
:101E80004068B0F5A02F0DD1FFE741F20001C4F288
:101E90000201086840F480200860086840F480303F
:101EA00008600CE041F20001C4F20201086820F46D
:101EB00080300860086820F480200860FFE7FFE7B2
:101EC000FFE7FFE704984068D0B1FFE7FFF704FDA4
:101ED0000390FFE741F20000C4F2020000688003B3
:101EE00000280CD4FFE7FFF7F7FC0399401A652898
:101EF00004D3FFE703208DF8170098E2EAE719E022
:101F0000FFF7EAFC0390FFE741F20000C4F2020091
:101F10000068800300280CD5FFE7FFF7DDFC03997C
:101F2000401A652804D3FFE703208DF817007EE2EE
:101F3000EAE7FFE7FFE7FFE704980078800700285B
:101F400040F18D80FFE741F20400C4F20200006816
:101F500010F00C0F13D0FFE741F20400C4F20200AE
:101F6000006800F00C00082829D1FFE741F20400C6
:101F7000C4F202000068C003002820D4FFE741F249
:101F80000000C4F2020000688007002809D5FFE7BE
:101F900004980069012804D0FFE701208DF817009C
:101FA00045E241F20001C4F20201086820F0F800A5
:101FB000049A526940EAC2000860FFE74EE00498C4
:101FC000006958B3FFE70021C4F2422101200860F4
:101FD000FFF782FC0390FFE741F20000C4F2020029
:101FE0000068800700280CD4FFE7FFF775FC039911
:101FF000401A032804D3FFE703208DF8170016E2E8
:10200000EAE741F20001C4F20201086820F0F8009A
:10201000049A526940EAC20008601EE00021C4F23E
:10202000422100200860FFF757FC0390FFE741F2D0
:102030000000C4F202000068800700280CD5FFE70A
:10204000FFF74AFC0399401A032804D3FFE7032053
:102050008DF81700EBE1EAE7FFE7FFE7FFE70498F9
:1020600000780007002848D5FFE70498806918B376
:10207000FFE740F28041C4F2422101200860FFF7EF
:102080002BFC0390FFE741F22400C4F20200006839
:10209000800700280CD4FFE7FFF71EFC0399401AC5
:1020A000032804D3FFE703208DF81700BFE1EAE718
:1020B000012000F047FC1FE040F28041C4F24221C1
:1020C00000200860FFF708FC0390FFE741F22400BE
:1020D000C4F202000068800700280CD5FFE7FFF774
:1020E000FBFB0399401A032804D3FFE703208DF874
:1020F00017009CE1EAE7FFE7FFE704980078400754
:10210000002840F1D880FFE700208DF8070041F259
:102110001C00C4F202000068C000002813D4FFE7CE
:10212000FFE741F21C00C4F20200016841F0805157
:102130000160006800F0805000900098FFE70120E7
:102140008DF80700FFE747F20000C4F200000068C6
:10215000C005002822D4FFE747F20001C4F20001C5
:10216000086840F480700860FFF7B6FB0390FFE753
:1021700047F20000C4F200000068C00500280CD43B
:10218000FFE7FFF7A9FB0399401A652804D3FFE78F
:1021900003208DF817004AE1EAE7FFE7FFE704981C
:1021A000C068012809D1FFE741F22001C4F2020111
:1021B000086840F00100086031E00498C06868B920
:1021C000FFE741F22001C4F20201086820F001009B
:1021D0000860086820F0040008601FE00498C068E8
:1021E00005280DD1FFE741F22001C4F20201086881
:1021F00040F004000860086840F0010008600CE04E
:1022000041F22001C4F20201086820F001000860D8
:10221000086820F004000860FFE7FFE7FFE7FFE73A
:102220000498C068E0B1FFE7FFF756FB0390FFE7B3
:1022300041F22000C4F202000068800700280ED49A
:10224000FFE7FFF749FB0399401A41F289318842C1
:1022500004D3FFE703208DF81700E8E0E8E71BE070
:10226000FFF73AFB0390FFE741F22000C4F20200BF
:102270000068800700280ED5FFE7FFF72DFB0399C4
:10228000401A41F28931884204D3FFE703208DF8D8
:102290001700CCE0E8E7FFE79DF80700012809D127
:1022A000FFE741F21C01C4F20201086820F08050EF
:1022B0000860FFE7FFE70498C069002800F0B380DA
:1022C000FFE741F20400C4F20200006800F00C00D5
:1022D000082800F08280FFE70498C06902285CD1DA
:1022E000FFE76021C4F2422100200860FFF7F4FA02
:1022F0000390FFE741F20000C4F202000068800191
:1023000000280CD5FFE7FFF7E7FA0399401A0328E6
:1023100004D3FFE703208DF8170088E0EAE704986C
:10232000006AB0F5803F0CD1FFE741F20401C4F22E
:102330000201086820F40030049A92681043086093
:10234000FFE741F20401C4F20201086820F47410AE
:10235000049B1A6A5B6A1A43104308606021C4F246
:10236000422101200860FFF7B7FA0390FFE741F22E
:102370000000C4F202000068800100280CD4FFE7CE
:10238000FFF7AAFA0399401A032804D3FFE70320B2
:102390008DF817004BE0EAE71EE06021C4F242210D
:1023A00000200860FFF798FA0390FFE741F2000071
:1023B000C4F202000068800100280CD5FFE7FFF797
:1023C0008BFA0399401A032804D3FFE703208DF802
:1023D00017002CE0EAE7FFE724E00498C069012831
:1023E00004D1FFE701208DF8170020E041F204003E
:1023F000C4F2020000680290029800F48030049950
:10240000096A884208D1FFE7029800F47010049925
:10241000496A884204D0FFE701208DF8170006E0E2
:10242000FFE7FFE7FFE700208DF81700FFE79DF8C3
:10243000170006B080BD000080B582B00190019801
:1024400000F0A0FA02B080BD82B00190ADF8021099
:1024500002B0704781B0009001B0704780B582B083
:102460000090009820B9FFE701208DF8070040E0B8
:102470000098806908B1FFE700E0FFE7009890F856
:10248000410040B9FFE70099002081F84000009822
:1024900000F034F8FFE70099242081F8410000980B
:1024A0000168C86820F40050C860009800F008FC7B
:1024B00000980168086920F490400861009801685C
:1024C000486920F02A00486100980168C86840F413
:1024D0000050C860009900204864009A202182F8CA
:1024E0004110009A82F84210009948638DF8070065
:1024F000FFE79DF8070002B080BD000080B58CB0FA
:102500000B9000200A900990089007900B980068A3
:1025100044F60001C4F20001884240F08680FFE7E3
:10252000FFE741F21C00C4F20200016841F480217F
:102530000160006800F4802006900698FFE7FFE73E
:1025400041F21800C4F20200016841F00801016084
:10255000006800F0080005900598FFE74FF48060E0
:1025600007900220089003200A9040F60040C4F231
:102570000100019007A90291FFF71EF80198029946
:102580004FF4006207920022039208920992FFF72B
:1025900013F8039940F2A410C2F200000490302214
:1025A000C4F202020260416081608022C260016167
:1025B000416181614FF40051C161FEF73FFF18B1E5
:1025C000FFE7FDF747FFFFE7FFE70B9840F2A41195
:1025D000C2F20001C1630B984862FFE740F2E810C5
:1025E000C2F2000000901C21C4F20201016010211F
:1025F0004160002181608022C2600161416181618E
:102600004FF40051C161FEF719FF18B1FFE7FDF764
:1026100021FFFFE7FFE70B9840F2E811C2F200014B
:1026200081630B984862FFE7FFE70CB080BD0000B4
:1026300080B584B002900191ADF80220029890F824
:102640004200202817D1FFE7019820B1FFE7BDF82D
:10265000020020B9FFE701208DF80F000FE002997A
:102660000020086302980199BDF8022000F086FB63
:102670008DF80F0003E002208DF80F00FFE79DF8B2
:102680000F0004B080BD000080B582B0019040F220
:102690000011C2F2000108784A7840EA02206FF384
:1026A000DF2040F2F80EC2F2000EAEF800004878CB
:1026B0008A78C00840EA42106FF3DF2040F2FA0C3B
:1026C000C2F2000CACF800008878CB780A79800957
:1026D00040EA830040EA82206FF3DF2040F2FC03EF
:1026E000C2F20003188008794A79400840EAC21013
:1026F0006FF3DF2040F2FE02C2F200021080BEF84B
:102700000000A0F58060AEF80000BCF80000A0F565
:102710008060ACF800001888A0F5806018801088F0
:10272000A0F58060108040F22C20C2F2000012223E
:10273000FFF77EFF02B080BD81B0009001B070470E
:10274000FFE7FEE780B582B040F27C10C2F20000E5
:10275000019046F20041C4F2000101600221416093
:10276000002181604FF08072C2604FF470220261DC
:1027700041610176417681760122C2760177417707
:10278000FEF70CFB18B1FFE7FDF764FEFFE702B0B0
:1027900080BD000080B584B0FFE741F21400C4F2B0
:1027A0000200016841F001010160006800F00100D1
:1027B00003900398FFE70C2000900022019211463D
:1027C000FFF726F90098FFF719F9019A0D200290FA
:1027D0001146FFF71DF90298FFF710F904B080BD0C
:1027E00083B0FFE741F21800C4F20200016841F033
:1027F00020010160006800F0200002900298FFE7CD
:10280000FFE741F21800C4F20200016841F008013C
:102810000160006800F0080001900198FFE7FFE701
:1028200041F21800C4F20200016841F004010160A5
:10283000006800F0040000900098FFE703B07047C4
:1028400080B582B040F22C20C2F20000019044F624
:102850000001C4F20001016048F2A061C0F2010170
:10286000416000218160C16001610C22426181618F
:10287000C161FFF7F3FD18B1FFE7FDF7EBFDFFE7DF
:1028800002B080BDFFE7FEE782B0019000910199A0
:102890000888488000980178407840EA0120019932
:1028A00008800199088A488200988178C07840EAB7
:1028B00001200199088200980179407940EA0120BD
:1028C00001998882009880790199887502B07047D3
:1028D000FFE7FEE788B0079006910592079800F0A1
:1028E000070004900498C0F10700052803D3FFE710
:1028F0000420019004E00498C0F107000190FFE774
:102900000198039004980430062803D8FFE70020BC
:10291000009003E0049803380090FFE700980290CD
:1029200006980399012202FA01F101390840029B3D
:10293000984005999A40013A1140084308B0704701
:102940007047000082B00190019840F20001C2F28D
:1029500000010968C90844F6D352C1F26202A1FB22
:102960000221890948430090FFE700BFFFE7009874
:10297000411E00910028F8D1FFE702B07047000027
:102980007047000080B582B0009000980138B0F127
:10299000807F03D3FFE70120019019E00098013800
:1029A0004EF21401CEF2000108604FF0FF300F210B
:1029B00000F094FA4EF21801CEF2000100200860F7
:1029C0004EF21002CEF20002072111600190FFE7E3
:1029D000019802B080BD000080B5FEF783FF80BD86
:1029E00080B590B006A800902821FDF7EDFB009877
:1029F000002305930493039302930193012206920B
:102A00004FF48031079108930A9202220D920E91A1
:102A10004FF4E0110F91FFF7D1F918B1FFE7FDF77F
:102A200019FDFFE70F200190022102910020039081
:102A30004FF480620492059001A8FFF70BF818B1DB
:102A4000FFE7FDF707FDFFE710B080BD704700000E
:102A500080B584B00390002002900398406A0190F2
:102A6000019800684069C0B2C0090290019890F8CE
:102A7000410021280AD1FFE7029838B1FFE7019908
:102A80000020C884019800F0FFF8FFE70198006873
:102A90004069C0F380100290019890F8420022280B
:102AA0000AD1FFE7029838B1FFE701990020C885F5
:102AB000019800F09FF8FFE70199486C40F0100082
:102AC00048640198FFF7C6FC04B080BD80B586B0AD
:102AD00005900598406A0490059800680068800693
:102AE00000285AD4FFE704990020C885FFE7FFE7D4
:102AF0000498006850E8030F20F480700390FFE70B
:102B000003990498026842E803100028F0D1FFE717
:102B1000FFE7FFE7FFE70498006850E8050F20F0A3
:102B200001000290FFE702990498026842E805104C
:102B30000028F0D1FFE7FFE7FFE7FFE70498006810
:102B400050E8050F20F040000190FFE7019904983C
:102B5000026842E805100028F0D1FFE7FFE704997A
:102B6000202081F842000498006B012814D1FFE76F
:102B7000FFE7FFE70498006850E8030F20F010001B
:102B80000090FFE700990498026842E803100028CB
:102B9000F0D1FFE7FFE7FFE7FFE704990020486374
:102BA0000498006B012805D1FFE70498818DFFF799
:102BB0004BFC03E00498FFF767FDFFE706B080BD1C
:102BC00080B582B001900198406A00900099012080
:102BD00048630098006B012806D1FFE70098818DBB
:102BE0004908FFF731FC03E00098FFF7A5FDFFE778
:102BF00002B080BD84B00390FFE7FFE70398006850
:102C000050E8030F20F490700290FFE702990398B8
:102C1000026842E803100028F0D1FFE7FFE7FFE772
:102C2000FFE70398006850E8050F20F001000190CD
:102C3000FFE701990398026842E805100028F0D1E7
:102C4000FFE7FFE70398006B012814D1FFE7FFE7D8
:102C5000FFE70398006850E8030F20F01000009091
:102C6000FFE700990398026842E803100028F0D1BA
:102C7000FFE7FFE7FFE70399202081F8420003996F
:102C80000020086304B0704782B00190FFE7FFE7BF
:102C90000198006850E8030F20F0C0000090FFE7A3
:102CA00000990198026842E803100028F0D1FFE77C
:102CB000FFE70199202081F8410002B07047000031
:102CC00080B584B0039003980068006920F44050F8
:102CD000039A1168D26810430861039988680A69E9
:102CE000496910430843029003980068C06841F2A4
:102CF0000C6188430299084303990968C8600398E6
:102D00000068406920F44070039A1168926910438A
:102D100048610398006843F60001C4F2010188424B
:102D200004D1FFE7FEF7DAFF019003E0FEF7C4FFEE
:102D30000190FFE7019819214843039A11685268EE
:102D40009200B0FBF2FC48F21F52C5F2EB12ACFB52
:102D500002304309642003FB10CC322000EB0C103E
:102D6000A0FB0202F02000EA521000EB0310C2F3B5
:102D700043121044886004B080BD000080B588B064
:102D800007900691ADF81620069807998862BDF85D
:102D9000160007998885079900204864079A222120
:102DA00082F842100799CA6B42F6CD21C0F60001A5
:102DB00091620799CA6B42F6C131C0F60001D16237
:102DC0000799CA6B42F65121C0F6000111630799B9
:102DD000C96B486306A8049007980168C06B04316A
:102DE000049A1268BDF81630FEF780FBFFE700205A
:102DF000039007980068006803900798006840688F
:102E000003900398FFE707980069A0B1FFE7FFE789
:102E1000FFE70798006850E8030F40F480700290C5
:102E2000FFE702990798026842E803100028F0D1F2
:102E3000FFE7FFE7FFE7FFE7FFE70798006850E8D5
:102E4000050F40F001000190FFE701990798026823
:102E500042E805100028F0D1FFE7FFE7FFE7FFE7B2
:102E60000798006850E8050F40F040000090FFE729
:102E700000990798026842E805100028F0D1FFE7A2
:102E8000FFE7002008B080BD80B540F27C10C2F2A0
:102E90000000FDF789FD80BDFFE7FEE781B08DF8FA
:102EA00003009DF9030000280ED4FFE79DF90310ED
:102EB00001F01F02012090404A094EF20011CEF2AB
:102EC000000141F82200FFE701B070474EF60C50B8
:102ED000CEF200000068C0F30220704782B08DF887
:102EE000070000919DF9070000280AD4FFE7009829
:102EF00000019DF907104EF20042CEF20002885404
:102F00000BE0009800019DF8071001F00F014EF64C
:102F10001452CEF200028854FFE702B0704700005E
:102F200083B00290029800F0070000904EF60C511A
:102F3000CEF200010868019001984FF6FF021040A0
:102F400001900198009A40EA02200022C0F2FA5251
:102F5000104301900198086003B0704780B584B0B9
:102F6000694646F20000C4F2EA604860086040F238
:102F70004810C2F200000021C4F2F01100230393B4
:102F80001A4600F083F8039B68460021C4F2A03182
:102F90004160036040F21410C2F200000021C4F24C
:102FA000C8311A4600F072F804B080BD80B582B016
:102FB00000200190FEF7A4FCFFF712FDFFF710FCC4
:102FC000FFF7E8FBFFF7BEFBFFF73AFC40F22C20CF
:102FD000C2F2000040F20011C2F200011222FFF71B
:102FE00027FB40F27C10C2F20000FDF77BF9FFF7EF
:102FF000B5FFFFE7FEE7000080B58CB00B900A91AB
:1030000009920A980B99486109980B9988610B9964
:10301000C86908620B9901914869896900F0B2F9A1
:103020000199C8610B9902910868C96900F0DEF83E
:10303000029948620B9A04925068D169926A03928D
:1030400000F0D4F8039900F03BF8049988620B99DA
:10305000069188680590C869096A00F093F90146ED
:10306000059800F0C3F80699C8620B9A0892506A56
:10307000916AD26A079200F023F8079900F020F8CD
:10308000089908630B98006B0CB080BD84B0DDF824
:1030900014C0DDF810C003900291019200930298D1
:1030A0000399086001980399486000980399886023
:1030B00004980399C86005980399086104B07047A3
:1030C00090EA010F48BF81F0004100F16281421A8D
:1030D0003CBF801A89184FEAD052A2EBD1534FF06F
:1030E0007F4C1CEA410F18BF9CEA026F00F03B8046
:1030F0004FF0004C4CEA00204CEA012121FA03FC7D
:1031000010EB0C0C1ED202F1FF325FEA1C2040EBE8
:10311000C25038BF70471CF07F0F4FEA400C18BFF9
:10312000BCF17F4F38BF7047C3F12003994008BFFF
:1031300020F00100BCF17F4F38BF7047A0F1C040C4
:1031400000F01BB94FEA3C00000A40EBC25028BF18
:103150001CF0FF0F4FEA400CE6D018BFBCF17F4FC8
:1031600038BF7047EAE79CEA026F05D010EA5C0FAF
:1031700008BF00F00040704710B500F0B8F800BF7D
:1031800064FBBE3E41000B0ED3F19E0208D950F401
:1031900000034FEA032323FA02F048BF404270477E
:1031A00010B500F0A4F800BF4992248000207047B9
:1031B0006FF0004282EA20007047000010F00041EA
:1031C00048BF4042B0FA80F310FA03F2C3F19D0306
:1031D0000BD051EAC35101EB1220530638BF7047A0
:1031E00000F1010008BF20F0010070474FF47F0C90
:1031F0001CEAD0121EBF1CEAD11392EA0C0F93EA0C
:103200000C0F00F0478090EA010F48BF42F4807233
:103210004FF0004C4CEA00204CEA012102EB030283
:10322000A0FB0113A2F50002002918BF43F001031F
:103230005B0028BF4FEA330342EB22425FEA132CC4
:103240004CEBC2502EBFBCEB436FB2F57C0F704706
:103250004FEA036CBCF1004F08BF20F00100B2F54B
:103260007C0F38BF70470BD582F0FF0212F5803F0C
:10327000C8BF704700F1C040D8BF00F000407047A1
:1032800000F5000C5FEA4C0C48BF7047B0F1C0403D
:1032900000F073B80CEAD11390EA010F48BF42F472
:1032A0008072624538BF634504D280EA010000F0B5
:1032B0000040704710B500F01AF800BF8900013EC9
:1032C00000F007B800F009B85FEA410C5FEA1C6C37
:1032D00008D080EA010000F050B85FEA400C5FEAD5
:1032E0001C6CF6D14FF00040A0F5800070470EF145
:1032F000020E2EF0030E5EF8044B244204D44FEA73
:103300004102B2F17F4F11D84FEA4003B3F17F4F32
:103310000CD80ED14FEAD07C0CEB4C0C0CF1020C0B
:10332000B2F17F4F08BF4CEBD17C04E04FF0080CAA
:1033300001E04FEAD17C0CEB4C0324FA03F404F0D7
:103340000704B4F1040C06D20EEB840CBDE8104067
:103350004CF0010C6047DFE80CF0070802024FF068
:103360000040A0F5800010BD0846420018BFD2F111
:10337000807288BF00F0004010BDFF2141EAD050AC
:10338000C005704790EA010F48BF81F000413FF54A
:103390009EAE421A04D882F00042A0EB0200114413
:1033A0004FEAD052A2EBD1534FF07F4C1CEA410FB1
:1033B00018BF9CEA026F4AD04FF0004C4CEA002044
:1033C0004CEA012121FA03FCB0EB0C0C0FD412F0F3
:1033D000FE0F36D05FEA4C001DD5001240EBC25004
:1033E00038BF70471CF03F0F18BF70470BE05FEA13
:1033F0001C20A2F1010240EBC25038BF70471CF004
:103400007F0F18BF7047C3F12003994014BF401EBF
:1034100020F0010070474FEA1223800808BF704770
:10342000B0FA80FCA2EB0C02CCF1280C60FA0CF094
:1034300093EA122F04BF00EBC25070474FEAC370EB
:103440007047130A5FEADC1008BF7047F6E79CEA92
:10345000026F04D010EA5C0F08BF0020704710B55F
:10346000FFF745FF40DFF63E81F000407047000067
:103470000000000000000102030406070809000024
:1034800000000102030402030405060708090A0BF1
:103490000C0D0E0F10100102B834000800000020BF
:1034A0001000000028010008C834000810000020A7
:1034B000880800004401000800127A0001000000A2
:0834C0001000000000000000F4
:04000005080000ED02
:00000001FF
